{
  "_format": "hh-sol-artifact-1",
  "contractName": "SimpleGovernor",
  "sourceName": "contracts/SimpleGovernor.sol",
  "abi": [
    {
      "inputs": [
        {
          "internalType": "address",
          "name": "_token",
          "type": "address"
        }
      ],
      "stateMutability": "nonpayable",
      "type": "constructor"
    },
    {
      "anonymous": false,
      "inputs": [
        {
          "indexed": false,
          "internalType": "uint256",
          "name": "proposalId",
          "type": "uint256"
        },
        {
          "indexed": false,
          "internalType": "string",
          "name": "description",
          "type": "string"
        },
        {
          "indexed": false,
          "internalType": "uint256",
          "name": "deadline",
          "type": "uint256"
        }
      ],
      "name": "ProposalCreated",
      "type": "event"
    },
    {
      "anonymous": false,
      "inputs": [
        {
          "indexed": false,
          "internalType": "uint256",
          "name": "proposalId",
          "type": "uint256"
        },
        {
          "indexed": false,
          "internalType": "address",
          "name": "voter",
          "type": "address"
        },
        {
          "indexed": false,
          "internalType": "bool",
          "name": "support",
          "type": "bool"
        },
        {
          "indexed": false,
          "internalType": "uint256",
          "name": "weight",
          "type": "uint256"
        }
      ],
      "name": "Voted",
      "type": "event"
    },
    {
      "inputs": [],
      "name": "VOTING_PERIOD",
      "outputs": [
        {
          "internalType": "uint256",
          "name": "",
          "type": "uint256"
        }
      ],
      "stateMutability": "view",
      "type": "function"
    },
    {
      "inputs": [
        {
          "internalType": "string",
          "name": "description",
          "type": "string"
        }
      ],
      "name": "createProposal",
      "outputs": [
        {
          "internalType": "uint256",
          "name": "",
          "type": "uint256"
        }
      ],
      "stateMutability": "nonpayable",
      "type": "function"
    },
    {
      "inputs": [
        {
          "internalType": "uint256",
          "name": "proposalId",
          "type": "uint256"
        }
      ],
      "name": "getProposal",
      "outputs": [
        {
          "internalType": "string",
          "name": "description",
          "type": "string"
        },
        {
          "internalType": "uint256",
          "name": "forVotes",
          "type": "uint256"
        },
        {
          "internalType": "uint256",
          "name": "againstVotes",
          "type": "uint256"
        },
        {
          "internalType": "uint256",
          "name": "deadline",
          "type": "uint256"
        },
        {
          "internalType": "bool",
          "name": "executed",
          "type": "bool"
        }
      ],
      "stateMutability": "view",
      "type": "function"
    },
    {
      "inputs": [],
      "name": "proposalCount",
      "outputs": [
        {
          "internalType": "uint256",
          "name": "",
          "type": "uint256"
        }
      ],
      "stateMutability": "view",
      "type": "function"
    },
    {
      "inputs": [
        {
          "internalType": "uint256",
          "name": "",
          "type": "uint256"
        }
      ],
      "name": "proposals",
      "outputs": [
        {
          "internalType": "string",
          "name": "description",
          "type": "string"
        },
        {
          "internalType": "uint256",
          "name": "forVotes",
          "type": "uint256"
        },
        {
          "internalType": "uint256",
          "name": "againstVotes",
          "type": "uint256"
        },
        {
          "internalType": "uint256",
          "name": "deadline",
          "type": "uint256"
        },
        {
          "internalType": "bool",
          "name": "executed",
          "type": "bool"
        }
      ],
      "stateMutability": "view",
      "type": "function"
    },
    {
      "inputs": [],
      "name": "token",
      "outputs": [
        {
          "internalType": "contract GovernanceToken",
          "name": "",
          "type": "address"
        }
      ],
      "stateMutability": "view",
      "type": "function"
    },
    {
      "inputs": [
        {
          "internalType": "uint256",
          "name": "proposalId",
          "type": "uint256"
        },
        {
          "internalType": "bool",
          "name": "support",
          "type": "bool"
        }
      ],
      "name": "vote",
      "outputs": [],
      "stateMutability": "nonpayable",
      "type": "function"
    }
  ],
  "bytecode": "0x60806040523480156200001157600080fd5b5060405162001375380380620013758339818101604052810190620000379190620000e8565b806000806101000a81548173ffffffffffffffffffffffffffffffffffffffff021916908373ffffffffffffffffffffffffffffffffffffffff160217905550506200011a565b600080fd5b600073ffffffffffffffffffffffffffffffffffffffff82169050919050565b6000620000b08262000083565b9050919050565b620000c281620000a3565b8114620000ce57600080fd5b50565b600081519050620000e281620000b7565b92915050565b6000602082840312156200010157620001006200007e565b5b60006200011184828501620000d1565b91505092915050565b61124b806200012a6000396000f3fe608060405234801561001057600080fd5b506004361061007d5760003560e01c8063c7f758a81161005b578063c7f758a814610104578063c9d27afe14610138578063da35c66414610154578063fc0c546a146101725761007d565b8063013cf08b1461008257806349c2a1a6146100b6578063b1610d7e146100e6575b600080fd5b61009c60048036038101906100979190610805565b610190565b6040516100ad9594939291906108ec565b60405180910390f35b6100d060048036038101906100cb9190610a7b565b61025b565b6040516100dd9190610ac4565b60405180910390f35b6100ee6103f9565b6040516100fb9190610ac4565b60405180910390f35b61011e60048036038101906101199190610805565b610400565b60405161012f9594939291906108ec565b60405180910390f35b610152600480360381019061014d9190610b0b565b6104e4565b005b61015c610791565b6040516101699190610ac4565b60405180910390f35b61017a610797565b6040516101879190610bca565b60405180910390f35b60016020528060005260406000206000915090508060000180546101b390610c14565b80601f01602080910402602001604051908101604052809291908181526020018280546101df90610c14565b801561022c5780601f106102015761010080835404028352916020019161022c565b820191906000526020600020905b81548152906001019060200180831161020f57829003601f168201915b5050505050908060010154908060020154908060030154908060040160009054906101000a900460ff16905085565b60008060008054906101000a900473ffffffffffffffffffffffffffffffffffffffff1673ffffffffffffffffffffffffffffffffffffffff166370a08231336040518263ffffffff1660e01b81526004016102b79190610c66565b602060405180830381865afa1580156102d4573d6000803e3d6000fd5b505050506040513d601f19601f820116820180604052508101906102f89190610c96565b11610338576040517f08c379a000000000000000000000000000000000000000000000000000000000815260040161032f90610d0f565b60405180910390fd5b60006002600081548092919061034d90610d5e565b91905055905060006001600083815260200190815260200160002090508381600001908161037b9190610f48565b506203f4804261038b919061101a565b816003018190555060008160040160006101000a81548160ff0219169083151502179055507ff5dc0da9afa6d080780a49fd8c680f03d2ddf3c067cd6d0c85360c096644d2d3828583600301546040516103e79392919061104e565b60405180910390a18192505050919050565b6203f48081565b60606000806000806000600160008881526020019081526020016000209050806000018160010154826002015483600301548460040160009054906101000a900460ff1684805461045090610c14565b80601f016020809104026020016040519081016040528092919081815260200182805461047c90610c14565b80156104c95780601f1061049e576101008083540402835291602001916104c9565b820191906000526020600020905b8154815290600101906020018083116104ac57829003601f168201915b50505050509450955095509550955095505091939590929450565b600060016000848152602001908152602001600020905080600301544210610541576040517f08c379a0000000000000000000000000000000000000000000000000000000008152600401610538906110d8565b60405180910390fd5b8060050160003373ffffffffffffffffffffffffffffffffffffffff1673ffffffffffffffffffffffffffffffffffffffff16815260200190815260200160002060009054906101000a900460ff16156105d0576040517f08c379a00000000000000000000000000000000000000000000000000000000081526004016105c790611144565b60405180910390fd5b60008060009054906101000a900473ffffffffffffffffffffffffffffffffffffffff1673ffffffffffffffffffffffffffffffffffffffff166370a08231336040518263ffffffff1660e01b815260040161062c9190610c66565b602060405180830381865afa158015610649573d6000803e3d6000fd5b505050506040513d601f19601f8201168201806040525081019061066d9190610c96565b9050600081116106b2576040517f08c379a00000000000000000000000000000000000000000000000000000000081526004016106a9906111b0565b60405180910390fd5b82156106d857808260010160008282546106cc919061101a565b925050819055506106f4565b808260020160008282546106ec919061101a565b925050819055505b60018260050160003373ffffffffffffffffffffffffffffffffffffffff1673ffffffffffffffffffffffffffffffffffffffff16815260200190815260200160002060006101000a81548160ff0219169083151502179055507f7c2de587c00d75474a0c6c6fa96fd3b45dc974cd4e8a75f712bb84c950dce1b58433858460405161078394939291906111d0565b60405180910390a150505050565b60025481565b60008054906101000a900473ffffffffffffffffffffffffffffffffffffffff1681565b6000604051905090565b600080fd5b600080fd5b6000819050919050565b6107e2816107cf565b81146107ed57600080fd5b50565b6000813590506107ff816107d9565b92915050565b60006020828403121561081b5761081a6107c5565b5b6000610829848285016107f0565b91505092915050565b600081519050919050565b600082825260208201905092915050565b60005b8381101561086c578082015181840152602081019050610851565b60008484015250505050565b6000601f19601f8301169050919050565b600061089482610832565b61089e818561083d565b93506108ae81856020860161084e565b6108b781610878565b840191505092915050565b6108cb816107cf565b82525050565b60008115159050919050565b6108e6816108d1565b82525050565b600060a08201905081810360008301526109068188610889565b905061091560208301876108c2565b61092260408301866108c2565b61092f60608301856108c2565b61093c60808301846108dd565b9695505050505050565b600080fd5b600080fd5b7f4e487b7100000000000000000000000000000000000000000000000000000000600052604160045260246000fd5b61098882610878565b810181811067ffffffffffffffff821117156109a7576109a6610950565b5b80604052505050565b60006109ba6107bb565b90506109c6828261097f565b919050565b600067ffffffffffffffff8211156109e6576109e5610950565b5b6109ef82610878565b9050602081019050919050565b82818337600083830152505050565b6000610a1e610a19846109cb565b6109b0565b905082815260208101848484011115610a3a57610a3961094b565b5b610a458482856109fc565b509392505050565b600082601f830112610a6257610a61610946565b5b8135610a72848260208601610a0b565b91505092915050565b600060208284031215610a9157610a906107c5565b5b600082013567ffffffffffffffff811115610aaf57610aae6107ca565b5b610abb84828501610a4d565b91505092915050565b6000602082019050610ad960008301846108c2565b92915050565b610ae8816108d1565b8114610af357600080fd5b50565b600081359050610b0581610adf565b92915050565b60008060408385031215610b2257610b216107c5565b5b6000610b30858286016107f0565b9250506020610b4185828601610af6565b9150509250929050565b600073ffffffffffffffffffffffffffffffffffffffff82169050919050565b6000819050919050565b6000610b90610b8b610b8684610b4b565b610b6b565b610b4b565b9050919050565b6000610ba282610b75565b9050919050565b6000610bb482610b97565b9050919050565b610bc481610ba9565b82525050565b6000602082019050610bdf6000830184610bbb565b92915050565b7f4e487b7100000000000000000000000000000000000000000000000000000000600052602260045260246000fd5b60006002820490506001821680610c2c57607f821691505b602082108103610c3f57610c3e610be5565b5b50919050565b6000610c5082610b4b565b9050919050565b610c6081610c45565b82525050565b6000602082019050610c7b6000830184610c57565b92915050565b600081519050610c90816107d9565b92915050565b600060208284031215610cac57610cab6107c5565b5b6000610cba84828501610c81565b91505092915050565b7f4d75737420686f6c6420746f6b656e7320746f2070726f706f73650000000000600082015250565b6000610cf9601b8361083d565b9150610d0482610cc3565b602082019050919050565b60006020820190508181036000830152610d2881610cec565b9050919050565b7f4e487b7100000000000000000000000000000000000000000000000000000000600052601160045260246000fd5b6000610d69826107cf565b91507fffffffffffffffffffffffffffffffffffffffffffffffffffffffffffffffff8203610d9b57610d9a610d2f565b5b600182019050919050565b60008190508160005260206000209050919050565b60006020601f8301049050919050565b600082821b905092915050565b600060088302610e087fffffffffffffffffffffffffffffffffffffffffffffffffffffffffffffffff82610dcb565b610e128683610dcb565b95508019841693508086168417925050509392505050565b6000610e45610e40610e3b846107cf565b610b6b565b6107cf565b9050919050565b6000819050919050565b610e5f83610e2a565b610e73610e6b82610e4c565b848454610dd8565b825550505050565b600090565b610e88610e7b565b610e93818484610e56565b505050565b5b81811015610eb757610eac600082610e80565b600181019050610e99565b5050565b601f821115610efc57610ecd81610da6565b610ed684610dbb565b81016020851015610ee5578190505b610ef9610ef185610dbb565b830182610e98565b50505b505050565b600082821c905092915050565b6000610f1f60001984600802610f01565b1980831691505092915050565b6000610f388383610f0e565b9150826002028217905092915050565b610f5182610832565b67ffffffffffffffff811115610f6a57610f69610950565b5b610f748254610c14565b610f7f828285610ebb565b600060209050601f831160018114610fb25760008415610fa0578287015190505b610faa8582610f2c565b865550611012565b601f198416610fc086610da6565b60005b82811015610fe857848901518255600182019150602085019450602081019050610fc3565b868310156110055784890151611001601f891682610f0e565b8355505b6001600288020188555050505b505050505050565b6000611025826107cf565b9150611030836107cf565b925082820190508082111561104857611047610d2f565b5b92915050565b600060608201905061106360008301866108c2565b81810360208301526110758185610889565b905061108460408301846108c2565b949350505050565b7f566f74696e6720656e6465640000000000000000000000000000000000000000600082015250565b60006110c2600c8361083d565b91506110cd8261108c565b602082019050919050565b600060208201905081810360008301526110f1816110b5565b9050919050565b7f416c726561647920766f74656400000000000000000000000000000000000000600082015250565b600061112e600d8361083d565b9150611139826110f8565b602082019050919050565b6000602082019050818103600083015261115d81611121565b9050919050565b7f4e6f20766f74696e6720706f7765720000000000000000000000000000000000600082015250565b600061119a600f8361083d565b91506111a582611164565b602082019050919050565b600060208201905081810360008301526111c98161118d565b9050919050565b60006080820190506111e560008301876108c2565b6111f26020830186610c57565b6111ff60408301856108dd565b61120c60608301846108c2565b9594505050505056fea26469706673582212203bcd0a16601a75e8c92d1387e3e78b9f9be0c2eeba55b3aed1c68adac68708b364736f6c63430008140033",
  "linkReferences": {},
  "deployedLinkReferences": {}
}